{
  "contractName": "Tournament",
  "abi": [
    {
      "constant": true,
      "inputs": [
        {
          "name": "",
          "type": "uint256"
        }
      ],
      "name": "games",
      "outputs": [
        {
          "name": "",
          "type": "address"
        }
      ],
      "payable": false,
      "stateMutability": "view",
      "type": "function",
      "signature": "0x117a5b90"
    },
    {
      "constant": true,
      "inputs": [],
      "name": "registrationFee",
      "outputs": [
        {
          "name": "",
          "type": "uint256"
        }
      ],
      "payable": false,
      "stateMutability": "view",
      "type": "function",
      "signature": "0x14c44e09"
    },
    {
      "constant": true,
      "inputs": [],
      "name": "maxPlayers",
      "outputs": [
        {
          "name": "",
          "type": "uint256"
        }
      ],
      "payable": false,
      "stateMutability": "view",
      "type": "function",
      "signature": "0x4c2412a2"
    },
    {
      "constant": true,
      "inputs": [],
      "name": "numberOfPlayers",
      "outputs": [
        {
          "name": "",
          "type": "uint256"
        }
      ],
      "payable": false,
      "stateMutability": "view",
      "type": "function",
      "signature": "0x6f4bda17"
    },
    {
      "constant": true,
      "inputs": [],
      "name": "TotalMoneyCollected",
      "outputs": [
        {
          "name": "",
          "type": "uint256"
        }
      ],
      "payable": false,
      "stateMutability": "view",
      "type": "function",
      "signature": "0xa1a9e1d3"
    },
    {
      "constant": true,
      "inputs": [
        {
          "name": "",
          "type": "address"
        }
      ],
      "name": "registrants",
      "outputs": [
        {
          "name": "",
          "type": "bool"
        }
      ],
      "payable": false,
      "stateMutability": "view",
      "type": "function",
      "signature": "0xb08c1e16"
    },
    {
      "constant": true,
      "inputs": [],
      "name": "winner",
      "outputs": [
        {
          "name": "",
          "type": "address"
        }
      ],
      "payable": false,
      "stateMutability": "view",
      "type": "function",
      "signature": "0xdfbf53ae"
    },
    {
      "constant": true,
      "inputs": [],
      "name": "host",
      "outputs": [
        {
          "name": "",
          "type": "address"
        }
      ],
      "payable": false,
      "stateMutability": "view",
      "type": "function",
      "signature": "0xf437bc59"
    },
    {
      "inputs": [],
      "payable": false,
      "stateMutability": "nonpayable",
      "type": "constructor",
      "signature": "constructor"
    },
    {
      "anonymous": false,
      "inputs": [
        {
          "indexed": false,
          "name": "registrantAddress",
          "type": "address"
        }
      ],
      "name": "ConfirmRegistrant",
      "type": "event",
      "signature": "0x8990ebbbc9a0267fbb8e85e65db8a5be6a23e60b8656b95d852a3b92951a6c81"
    },
    {
      "anonymous": false,
      "inputs": [
        {
          "indexed": false,
          "name": "value",
          "type": "uint256"
        }
      ],
      "name": "MoneyCollected",
      "type": "event",
      "signature": "0x060c1106806b3e80bb8cd7e15ea269bb68dd0c1f179b62000d81c74449097813"
    },
    {
      "constant": false,
      "inputs": [],
      "name": "register",
      "outputs": [],
      "payable": true,
      "stateMutability": "payable",
      "type": "function",
      "signature": "0x1aa3a008"
    },
    {
      "constant": false,
      "inputs": [],
      "name": "startTournament",
      "outputs": [],
      "payable": false,
      "stateMutability": "nonpayable",
      "type": "function",
      "signature": "0xbf559d11"
    }
  ],
  "bytecode": "0x608060405234801561001057600080fd5b5033600560006101000a81548173ffffffffffffffffffffffffffffffffffffffff021916908373ffffffffffffffffffffffffffffffffffffffff160217905550670de0b6b3a764000060068190555060006007819055506000600181905550600480819055506000600260006101000a81548173ffffffffffffffffffffffffffffffffffffffff021916908373ffffffffffffffffffffffffffffffffffffffff160217905550610e51806100c96000396000f3fe6080604052600436106100a4576000357c0100000000000000000000000000000000000000000000000000000000900463ffffffff168063117a5b90146100a957806314c44e09146101245780631aa3a0081461014f5780634c2412a2146101595780636f4bda1714610184578063a1a9e1d3146101af578063b08c1e16146101da578063bf559d1114610243578063dfbf53ae1461025a578063f437bc59146102b1575b600080fd5b3480156100b557600080fd5b506100e2600480360360208110156100cc57600080fd5b8101908080359060200190929190505050610308565b604051808273ffffffffffffffffffffffffffffffffffffffff1673ffffffffffffffffffffffffffffffffffffffff16815260200191505060405180910390f35b34801561013057600080fd5b50610139610346565b6040518082815260200191505060405180910390f35b61015761034c565b005b34801561016557600080fd5b5061016e610555565b6040518082815260200191505060405180910390f35b34801561019057600080fd5b5061019961055b565b6040518082815260200191505060405180910390f35b3480156101bb57600080fd5b506101c4610561565b6040518082815260200191505060405180910390f35b3480156101e657600080fd5b50610229600480360360208110156101fd57600080fd5b81019080803573ffffffffffffffffffffffffffffffffffffffff169060200190929190505050610567565b604051808215151515815260200191505060405180910390f35b34801561024f57600080fd5b50610258610587565b005b34801561026657600080fd5b5061026f6106f8565b604051808273ffffffffffffffffffffffffffffffffffffffff1673ffffffffffffffffffffffffffffffffffffffff16815260200191505060405180910390f35b3480156102bd57600080fd5b506102c661071e565b604051808273ffffffffffffffffffffffffffffffffffffffff1673ffffffffffffffffffffffffffffffffffffffff16815260200191505060405180910390f35b60038181548110151561031757fe5b906000526020600020016000915054906101000a900473ffffffffffffffffffffffffffffffffffffffff1681565b60065481565b600654341415156103c5576040517f08c379a000000000000000000000000000000000000000000000000000000000815260040180806020018281038252601d8152602001807f496e737566666369656e742066756e6473207472616e7366657272656400000081525060200191505060405180910390fd5b600454600154101515610440576040517f08c379a00000000000000000000000000000000000000000000000000000000081526004018080602001828103825260138152602001807f4d617820706c617965727320726561636865640000000000000000000000000081525060200191505060405180910390fd5b6001806000828254019250508190555060016000803373ffffffffffffffffffffffffffffffffffffffff1673ffffffffffffffffffffffffffffffffffffffff16815260200190815260200160002060006101000a81548160ff021916908315150217905550346007600082825401925050819055507f060c1106806b3e80bb8cd7e15ea269bb68dd0c1f179b62000d81c744490978136007546040518082815260200191505060405180910390a17f8990ebbbc9a0267fbb8e85e65db8a5be6a23e60b8656b95d852a3b92951a6c8133604051808273ffffffffffffffffffffffffffffffffffffffff1673ffffffffffffffffffffffffffffffffffffffff16815260200191505060405180910390a1565b60045481565b60015481565b60075481565b60006020528060005260406000206000915054906101000a900460ff1681565b600560009054906101000a900473ffffffffffffffffffffffffffffffffffffffff1673ffffffffffffffffffffffffffffffffffffffff163373ffffffffffffffffffffffffffffffffffffffff1614151561064c576040517f08c379a000000000000000000000000000000000000000000000000000000000815260040180806020018281038252601f8152602001807f4f6e6c7920686f73742063616e2075736520746869732066756e6374696f6e0081525060200191505060405180910390fd5b60008090505b60018054038110156106f5576003610668610744565b604051809103906000f080158015610684573d6000803e3d6000fd5b5090806001815401808255809150509060018203906000526020600020016000909192909190916101000a81548173ffffffffffffffffffffffffffffffffffffffff021916908373ffffffffffffffffffffffffffffffffffffffff160217905550508080600101915050610652565b50565b600260009054906101000a900473ffffffffffffffffffffffffffffffffffffffff1681565b600560009054906101000a900473ffffffffffffffffffffffffffffffffffffffff1681565b6040516106d1806107558339019056fe608060405234801561001057600080fd5b5060008060006101000a81548173ffffffffffffffffffffffffffffffffffffffff021916908373ffffffffffffffffffffffffffffffffffffffff1602179055506000600160006101000a81548173ffffffffffffffffffffffffffffffffffffffff021916908373ffffffffffffffffffffffffffffffffffffffff1602179055506000600260006101000a81548173ffffffffffffffffffffffffffffffffffffffff021916908373ffffffffffffffffffffffffffffffffffffffff1602179055506105ec806100e56000396000f3fe60806040526004361061006d576000357c0100000000000000000000000000000000000000000000000000000000900463ffffffff1680630a9f85dd1461007257806327b5db8a146100c957806393e84cd9146100f8578063bcffcf411461010f578063dfbf53ae14610166575b600080fd5b34801561007e57600080fd5b506100876101bd565b604051808273ffffffffffffffffffffffffffffffffffffffff1673ffffffffffffffffffffffffffffffffffffffff16815260200191505060405180910390f35b3480156100d557600080fd5b506100de6101e3565b604051808215151515815260200191505060405180910390f35b34801561010457600080fd5b5061010d610437565b005b34801561011b57600080fd5b50610124610575565b604051808273ffffffffffffffffffffffffffffffffffffffff1673ffffffffffffffffffffffffffffffffffffffff16815260200191505060405180910390f35b34801561017257600080fd5b5061017b61059a565b604051808273ffffffffffffffffffffffffffffffffffffffff1673ffffffffffffffffffffffffffffffffffffffff16815260200191505060405180910390f35b600160009054906101000a900473ffffffffffffffffffffffffffffffffffffffff1681565b60008073ffffffffffffffffffffffffffffffffffffffff166000809054906101000a900473ffffffffffffffffffffffffffffffffffffffff1673ffffffffffffffffffffffffffffffffffffffff16141561030357336000806101000a81548173ffffffffffffffffffffffffffffffffffffffff021916908373ffffffffffffffffffffffffffffffffffffffff1602179055507fd68983563d0d0d51c4dbffa9ea0fb32375a8b9af3d69c617b04f61dd083c32f56000809054906101000a900473ffffffffffffffffffffffffffffffffffffffff16604051808273ffffffffffffffffffffffffffffffffffffffff1673ffffffffffffffffffffffffffffffffffffffff16815260200191505060405180910390a161042f565b600073ffffffffffffffffffffffffffffffffffffffff16600160009054906101000a900473ffffffffffffffffffffffffffffffffffffffff1673ffffffffffffffffffffffffffffffffffffffff1614156104255733600160006101000a81548173ffffffffffffffffffffffffffffffffffffffff021916908373ffffffffffffffffffffffffffffffffffffffff1602179055507fd68983563d0d0d51c4dbffa9ea0fb32375a8b9af3d69c617b04f61dd083c32f5600160009054906101000a900473ffffffffffffffffffffffffffffffffffffffff16604051808273ffffffffffffffffffffffffffffffffffffffff1673ffffffffffffffffffffffffffffffffffffffff16815260200191505060405180910390a161042e565b60009050610434565b5b600190505b90565b6000809054906101000a900473ffffffffffffffffffffffffffffffffffffffff16600260006101000a81548173ffffffffffffffffffffffffffffffffffffffff021916908373ffffffffffffffffffffffffffffffffffffffff1602179055507f388105d67a33dde6a7946213d1b91b64dcf006e2399fb238d4a09ef44cb5f0886000809054906101000a900473ffffffffffffffffffffffffffffffffffffffff16600160009054906101000a900473ffffffffffffffffffffffffffffffffffffffff16604051808373ffffffffffffffffffffffffffffffffffffffff1673ffffffffffffffffffffffffffffffffffffffff1681526020018273ffffffffffffffffffffffffffffffffffffffff1673ffffffffffffffffffffffffffffffffffffffff1681526020019250505060405180910390a1565b6000809054906101000a900473ffffffffffffffffffffffffffffffffffffffff1681565b600260009054906101000a900473ffffffffffffffffffffffffffffffffffffffff168156fea165627a7a72305820b1234b096faa2ad673df1a9d52b44ac2d68db1295308c9736886c44e925f8f620029a165627a7a7230582038c654afc83358285e974fd439ec81fbef3b8f7d5d66371bf81677ffb660e5f10029",
  "source": "pragma solidity ^0.5.0;\n\nimport \"./TrivialGame.sol\";\n\ncontract Tournament {\n    \n    // *** State Variables ***\n\n    // Maping the address of participants to their username\n    mapping (address => bool) public registrants;\n    uint public numberOfPlayers;\n    address public winner;\n    TrivialGame[] public games;\n\n    // Setting max number of players\n    uint public maxPlayers;\n\n    // The host allocates funds to the account of the winner,\n    // and takes a cut to maintain the blockchain and keep the system going.\n\n    // Owner of the contract\n    address public host;\n\n    // Set amount for registration\n    uint public registrationFee;\n\n    uint public TotalMoneyCollected;\n    \n    // *** Functions ***\n    \n    constructor () public {\n        host = msg.sender;\n        registrationFee = 1000000000000000000;\n        TotalMoneyCollected = 0;\n\n        // Tournament Initalization\n        numberOfPlayers = 0;\n        maxPlayers = 4;\n        winner = address(0);\n    }\n\n    // Add player to 'registrants'\n    // emit result\n    function register() \n        public\n        payable\n        checkAmountTransferred\n        checkPlayerCap\n    {\n        numberOfPlayers += 1;\n        registrants[msg.sender] = true;\n        TotalMoneyCollected += msg.value;\n        emit MoneyCollected(TotalMoneyCollected);\n        emit ConfirmRegistrant(msg.sender);\n    }\n\n    function startTournament() \n    public\n    onlyHost\n    {\n        for (uint i = 0; i < numberOfPlayers - 1; i++) {\n            games.push(new TrivialGame());\n        }\n    }\n\n    // *** Events ***\n    event ConfirmRegistrant(address registrantAddress);\n    event MoneyCollected(uint value);\n\n    // *** Modifiers ***\n    modifier checkAmountTransferred() {require (msg.value == registrationFee, \"Insuffcient funds transferred\"); _;}\n    modifier onlyHost() {require (msg.sender == host, \"Only host can use this function\"); _;}\n    modifier checkPlayerCap() {require (numberOfPlayers < maxPlayers, \"Max players reached\"); _;}\n}",
  "sourcePath": "/Users/mrugaksheepalwe/Documents/Consensys/final-project-mrugakshee/contracts/Tournament.sol",
  "compiler": {
    "name": "solc",
    "version": "0.5.0+commit.1d4f565a.Emscripten.clang"
  },
  "schemaVersion": "3.0.0",
  "updatedAt": "2019-01-22T01:20:48.546Z",
  "devdoc": {
    "methods": {}
  },
  "userdoc": {
    "methods": {}
  }
}