{
  "contractName": "TrivialGame",
  "abi": [
    {
      "constant": true,
      "inputs": [],
      "name": "playerTwo",
      "outputs": [
        {
          "name": "",
          "type": "address"
        }
      ],
      "payable": false,
      "stateMutability": "view",
      "type": "function",
      "signature": "0x0a9f85dd"
    },
    {
      "constant": true,
      "inputs": [],
      "name": "playerOne",
      "outputs": [
        {
          "name": "",
          "type": "address"
        }
      ],
      "payable": false,
      "stateMutability": "view",
      "type": "function",
      "signature": "0xbcffcf41"
    },
    {
      "constant": true,
      "inputs": [],
      "name": "winner",
      "outputs": [
        {
          "name": "",
          "type": "address"
        }
      ],
      "payable": false,
      "stateMutability": "view",
      "type": "function",
      "signature": "0xdfbf53ae"
    },
    {
      "inputs": [],
      "payable": false,
      "stateMutability": "nonpayable",
      "type": "constructor",
      "signature": "constructor"
    },
    {
      "anonymous": false,
      "inputs": [
        {
          "indexed": false,
          "name": "playerOne",
          "type": "address"
        },
        {
          "indexed": false,
          "name": "playerTwo",
          "type": "address"
        }
      ],
      "name": "GamePlayed",
      "type": "event",
      "signature": "0x388105d67a33dde6a7946213d1b91b64dcf006e2399fb238d4a09ef44cb5f088"
    },
    {
      "anonymous": false,
      "inputs": [
        {
          "indexed": false,
          "name": "player",
          "type": "address"
        }
      ],
      "name": "checkAddedPlayer",
      "type": "event",
      "signature": "0xd68983563d0d0d51c4dbffa9ea0fb32375a8b9af3d69c617b04f61dd083c32f5"
    },
    {
      "constant": false,
      "inputs": [],
      "name": "addPlayer",
      "outputs": [
        {
          "name": "result",
          "type": "bool"
        }
      ],
      "payable": false,
      "stateMutability": "nonpayable",
      "type": "function",
      "signature": "0x27b5db8a"
    },
    {
      "constant": false,
      "inputs": [],
      "name": "play",
      "outputs": [],
      "payable": false,
      "stateMutability": "nonpayable",
      "type": "function",
      "signature": "0x93e84cd9"
    }
  ],
  "bytecode": "0x608060405234801561001057600080fd5b5060008060006101000a81548173ffffffffffffffffffffffffffffffffffffffff021916908373ffffffffffffffffffffffffffffffffffffffff1602179055506000600160006101000a81548173ffffffffffffffffffffffffffffffffffffffff021916908373ffffffffffffffffffffffffffffffffffffffff1602179055506000600260006101000a81548173ffffffffffffffffffffffffffffffffffffffff021916908373ffffffffffffffffffffffffffffffffffffffff1602179055506105ec806100e56000396000f3fe60806040526004361061006d576000357c0100000000000000000000000000000000000000000000000000000000900463ffffffff1680630a9f85dd1461007257806327b5db8a146100c957806393e84cd9146100f8578063bcffcf411461010f578063dfbf53ae14610166575b600080fd5b34801561007e57600080fd5b506100876101bd565b604051808273ffffffffffffffffffffffffffffffffffffffff1673ffffffffffffffffffffffffffffffffffffffff16815260200191505060405180910390f35b3480156100d557600080fd5b506100de6101e3565b604051808215151515815260200191505060405180910390f35b34801561010457600080fd5b5061010d610437565b005b34801561011b57600080fd5b50610124610575565b604051808273ffffffffffffffffffffffffffffffffffffffff1673ffffffffffffffffffffffffffffffffffffffff16815260200191505060405180910390f35b34801561017257600080fd5b5061017b61059a565b604051808273ffffffffffffffffffffffffffffffffffffffff1673ffffffffffffffffffffffffffffffffffffffff16815260200191505060405180910390f35b600160009054906101000a900473ffffffffffffffffffffffffffffffffffffffff1681565b60008073ffffffffffffffffffffffffffffffffffffffff166000809054906101000a900473ffffffffffffffffffffffffffffffffffffffff1673ffffffffffffffffffffffffffffffffffffffff16141561030357336000806101000a81548173ffffffffffffffffffffffffffffffffffffffff021916908373ffffffffffffffffffffffffffffffffffffffff1602179055507fd68983563d0d0d51c4dbffa9ea0fb32375a8b9af3d69c617b04f61dd083c32f56000809054906101000a900473ffffffffffffffffffffffffffffffffffffffff16604051808273ffffffffffffffffffffffffffffffffffffffff1673ffffffffffffffffffffffffffffffffffffffff16815260200191505060405180910390a161042f565b600073ffffffffffffffffffffffffffffffffffffffff16600160009054906101000a900473ffffffffffffffffffffffffffffffffffffffff1673ffffffffffffffffffffffffffffffffffffffff1614156104255733600160006101000a81548173ffffffffffffffffffffffffffffffffffffffff021916908373ffffffffffffffffffffffffffffffffffffffff1602179055507fd68983563d0d0d51c4dbffa9ea0fb32375a8b9af3d69c617b04f61dd083c32f5600160009054906101000a900473ffffffffffffffffffffffffffffffffffffffff16604051808273ffffffffffffffffffffffffffffffffffffffff1673ffffffffffffffffffffffffffffffffffffffff16815260200191505060405180910390a161042e565b60009050610434565b5b600190505b90565b6000809054906101000a900473ffffffffffffffffffffffffffffffffffffffff16600260006101000a81548173ffffffffffffffffffffffffffffffffffffffff021916908373ffffffffffffffffffffffffffffffffffffffff1602179055507f388105d67a33dde6a7946213d1b91b64dcf006e2399fb238d4a09ef44cb5f0886000809054906101000a900473ffffffffffffffffffffffffffffffffffffffff16600160009054906101000a900473ffffffffffffffffffffffffffffffffffffffff16604051808373ffffffffffffffffffffffffffffffffffffffff1673ffffffffffffffffffffffffffffffffffffffff1681526020018273ffffffffffffffffffffffffffffffffffffffff1673ffffffffffffffffffffffffffffffffffffffff1681526020019250505060405180910390a1565b6000809054906101000a900473ffffffffffffffffffffffffffffffffffffffff1681565b600260009054906101000a900473ffffffffffffffffffffffffffffffffffffffff168156fea165627a7a72305820b1234b096faa2ad673df1a9d52b44ac2d68db1295308c9736886c44e925f8f620029",
  "source": "pragma solidity ^0.5.0;\n\ncontract TrivialGame {\n    address public playerOne;\n    address public playerTwo;\n    address public winner;\n\n    ///////////////// Events\n    event GamePlayed(\n        address playerOne,\n        address playerTwo\n    );\n\n    event checkAddedPlayer (address player);\n\n    // The constructor is responsible for setting the players of the game\n    constructor() public {\n        playerOne = address(0);\n        playerTwo = address(0);\n        winner = address(0);\n    }\n\n    function addPlayer() public returns (bool result) {\n        if (playerOne == address(0)) {\n            playerOne = msg.sender;\n            emit checkAddedPlayer(playerOne);\n        } else if (playerTwo == address(0)) {\n            playerTwo = msg.sender;\n            emit checkAddedPlayer(playerTwo);\n        } else {\n            return false;\n        }\n        return true;\n    }\n\n    // This is where the actual game logic takes place\n    function play() \n    public\n    {\n        winner = playerOne;\n        emit GamePlayed(playerOne, playerTwo);\n    }\n}",
  "sourcePath": "/Users/mrugaksheepalwe/Documents/Consensys/final-project-mrugakshee/contracts/TrivialGame.sol",
  "compiler": {
    "name": "solc",
    "version": "0.5.0+commit.1d4f565a.Emscripten.clang"
  },
  "schemaVersion": "3.0.0",
  "updatedAt": "2019-01-22T01:20:48.544Z",
  "devdoc": {
    "methods": {}
  },
  "userdoc": {
    "methods": {}
  }
}